:100000000C942A000C9434000C9434000C943400AA
:100010000C9434000C9434000C9434000C94340090
:100020000C9434000C9434000C9434000C94340080
:100030000C9434000C9434000C9434000C94340070
:100040000C9434000C9434000C9434000C94340060
:100050000C94340011241FBECFE5D8E0DEBFCDBF25
:100060000E9447000C9450000C94000081E087BB74
:100070008FEF88BB089512BE13BE83B7856083BF20
:1000800008B600FEFDCF88B7816088BF08950E9442
:100090003600C0980E943B00C09A0E943B00F9CFF6
:0400A000F894FFCF02
:00000001FF
