S00B00006578312E737265630B
S11300000C942A000C9447000C9447000C9447006D
S11300100C9447000C9447000C9447000C94470040
S11300200C9447000C9447000C9447000C94470030
S11300300C9447000C9447000C9447000C94470020
S11300400C9447000C9447000C9447000C94470010
S11300500C94470011241FBECFE5D8E0DEBFCDBF0E
S113006010E0A0E6B0E0E8E8FBE002C005900D92E5
S1130070A637B107D9F720E0A6E7B0E001C01D928A
S1130080A33AB207E1F70E943D010C94C2050C9417
S113009000009BB39F70807F892B8BBB8BB38BB38A
S11300A0979A8BB38BB38BB38BB397986150704093
S11300B08FEF6F3F7807D1F7089591B3906A91BBA2
S11300C0959A0E944900089591B3906A91BB9598BE
S11300D00E9449000895FF920F931F93F82E8B01FD
S11300E060E070E00E946400B8018F2D8295807FEB
S11300F00E9464001F910F91FF900895FF920F9347
S11301001F93F82E8B0160E070E00E945D00B8013F
S11301108F2D8295807F0E945D001F910F91FF902B
S11301200895CF93DF93979881B3806A81BB8AB394
S1130130806F8ABBC0E0D0E060E375E780E30E9493
S113014064002196C530D105BCF360E375E780E215
S11301500E94640060E375E788E20E946B0068EE29
S113016073E088E00E946B0068EE73E086E00E9412
S11301706B0068EE73E08EE00E946B000E94CE007C
S113018040E050E0BA018EEE90E00E94720190933C
S1130190980080939700DF91CF910895CF9368EEF4
S11301A073E080E80E946B00C0E0C03129F468EE7F
S11301B073E088EA0E946B008C2F9927FC01EA58AF
S11301C0FF4F8081882309F480E268EE73E00E9487
S11301D07E00CF5FC03248F3CF910895982F80916D
S11301E09600803210F0109296008091960026E7D7
S11301F030E0F901E80FF11D90838F5F8093960042
S1130200892F992787FD90950895CF93DF93CDB7D4
S1130210DEB78D819E816F817885809396009923C6
S113022079F0803268F426E730E040E2F901E80F23
S1130230F11D408391508F5F992311F08032B0F308
S1130240AE01475F5F4F80919700909198000E94A4
S1130250BD010E94CE00DF91CF9108950E949100CC
S113026086E690E09F938F931F921F920E94050150
S11302700F900F900F900F9008950E942E0189E126
S113028090E00E945E0102E710E0D0E10E946A0162
S1130290C82F1F928F931F930F931F92DF930E9477
S11302A005018C2F0E946E010F900F900F900F90FC
S11302B00F900F90EBCF90BD89B908950E945B0118
S11302C080E880BD1BB88AB188618AB980B58E6A1E
S11302D080BD08955F9BFECF8CB108955D9BFECFDA
S11302E08CB908950F931F93CF93DF93009731F444
S11302F06115710519F480E090E03AC08B01EC01BE
S11303006EE070E081E090E00E948F03FC01892B95
S113031091F380E883830115110571F01387028737
S113032081E883838091990090919A00892B21F42C
S1130330F0939A00E09399002097C9F0D187C08781
S113034083818260838380919B0090919C00892BA0
S113035071F4F0939C00E0939B0080919D00909138
S11303609E00892B21F4F0939E00E0939D00CF0121
S1130370DF91CF911F910F910895ACE0B0E0E3ECD1
S1130380F1E00C948B057C016B018A01FC0117825E
S11303901682838181FFBDC1CE0101964C01F70114
S11303A09381F60193FD859193FF81916F018823D9
S11303B009F4ABC1853239F493FD859193FF8191A2
S11303C06F01853229F4B70190E00E94F504E7CF6C
S11303D0512C312C20E02032A0F48B3269F030F41F
S11303E0803259F0833269F420612CC08D3239F0A7
S11303F0803339F4216026C02260246023C0286041
S113040021C027FD27C030ED380F3A3078F426FF9D
S113041006C0FAE05F9E300D1124532E13C08AE00B
S1130420389E300D1124332E20620CC08E3221F4FC
S113043026FD6BC1206406C08C3611F4206802C00E
S1130440883641F4F60193FD859193FF81916F0104
S11304508111C1CF982F9F7D9554933028F40C5F60
S11304601F4FFFE3F9830DC0833631F0833771F0FA
S1130470833509F05BC022C0F801808189830E5F57
S11304801F4F44244394512C540115C03801F2E009
S11304906F0E711CF801A080B18026FF03C0652D8A
S11304A070E002C06FEF7FEFC5012C870E94EA0461
S11304B02C0183012C852F77222E17C03801F2E0FE
S11304C06F0E711CF801A080B18026FF03C0652D5A
S11304D070E002C06FEF7FEFC5012C870E94D80443
S11304E02C012C852068222E830123FC1BC0832D24
S11304F090E048165906B0F4B70180E290E00E94FB
S1130500F5043A94F4CFF50127FC859127FE8191F7
S11305105F01B70190E00E94F50431103A94F1E0D4
S11305204F1A51084114510471F7E5C0843611F093
S1130530893639F5F80127FF07C06081718182810E
S113054093810C5F1F4F08C060817181072E000CDE
S1130550880B990B0E5F1F4F2F76722E97FF09C0E1
S113056090958095709561957F4F8F4F9F4F206830
S1130570722E2AE030E0A4010E942D05A82EA818AE
S113058044C0853729F42F7EB22E2AE030E025C0FE
S1130590F22FF97FBF2E8F36C1F018F4883579F029
S11305A0B4C0803719F0883721F0AFC02F2F2061F5
S11305B0B22EB4FE0DC08B2D8460B82E09C024FF6A
S11305C00AC09F2F9660B92E06C028E030E005C00F
S11305D020E130E002C020E132E0F801B7FE07C0BC
S11305E060817181828193810C5F1F4F06C060819D
S11305F0718180E090E00E5F1F4FA4010E942D05E1
S1130600A82EA818FB2DFF777F2E76FE0BC0372D62
S11306103E7FA51450F474FE0AC072FC08C0372D46
S11306203E7E05C0BA2C372D03C0BA2C01C0B52CB0
S113063034FF0DC0FE01EA0DF11D8081803311F4F9
S1130640397E09C032FF06C0B394B39404C0832F2B
S1130650867809F0B39433FD13C030FF06C05A2CDA
S1130660B31418F4530C5B18B32CB31468F4B70127
S113067080E290E03C870E94F504B3943C85F5CF7A
S1130680B31410F43B1801C0312C34FF12C0B7016D
S113069080E390E03C870E94F5043C8532FF17C05C
S11306A031FD03C088E790E002C088E590E0B7011F
S11306B00CC0832F867859F031FF02C08BE201C051
S11306C080E237FD8DE2B70190E00E94F504A514A5
S11306D038F4B70180E390E00E94F5045A94F7CF10
S11306E0AA94F401EA0DF11D8081B70190E00E9403
S11306F0F504A110F5CF332009F451CEB70180E2FF
S113070090E00E94F5043A94F6CFF7018681978130
S113071002C08FEF9FEF2C96E2E10C94A7050F9394
S11307201F93CF93DF93869F8001879F100D969F21
S1130730100D1124C8010E94AB03EC01009729F0AD
S1130740A80160E070E00E94E304CE01DF91CF9144
S11307501F910F910895CF93DF938230910510F488
S113076082E090E0E091A100F091A20020E030E06E
S1130770C0E0D0E0309711F140815181481759070A
S1130780C0F04817590761F482819381209719F0CA
S11307909B838A832BC09093A2008093A10026C0E0
S11307A02115310519F04217530718F49A01BE01B7
S11307B0DF01EF010280F381E02DDCCF211531054B
S11307C009F1281B390B2430310590F412968D91D0
S11307D09C9113976115710521F0FB01938382832A
S11307E004C09093A2008093A100FD01329644C0FE
S11307F0FD01E20FF31F81939193225031092D9350
S11308003C933AC020919F003091A000232B41F4E7
S113081020916200309163003093A00020939F00E8
S113082020916000309161002115310541F42DB70C
S11308303EB74091640050916500241B350BE09154
S11308409F00F091A000E217F307A0F42E1B3F0BCA
S11308502817390778F0AC014E5F5F4F241735072E
S113086048F04E0F5F1F5093A00040939F00819368
S1130870919302C0E0E0F0E0CF01DF91CF910895C1
S11308800F931F93CF93DF93009709F48CC0FC015F
S11308903297138212820091A1001091A2000115D7
S11308A0110581F420813181820F931F20919F00D3
S11308B03091A0002817390779F5F093A000E09350
S11308C09F0071C0D80140E050E0AE17BF0750F45C
S11308D012962D913C911397AD012115310509F123
S11308E0D901F3CF9D01DA013383228360817181C1
S11308F0860F971F8217930769F4EC0128813981C9
S1130900260F371F2E5F3F4F318320838A819B81BF
S113091093838283452B29F4F093A200E093A100F2
S113092042C01396FC93EE931297ED0149915991AD
S11309309E01240F351FE217F30771F48081918122
S1130940840F951F029611969C938E9382819381B6
S113095013969C938E931297E0E0F0E0D8011296E0
S11309608D919C911397009719F0F8018C01F6CFA3
S11309708D919C9198012E5F3F4F820F931F209180
S11309809F003091A0002817390769F4309729F4A3
S11309901092A2001092A10002C01382128210933E
S11309A0A00000939F00DF91CF911F910F910895B4
S11309B0FC010590615070400110D8F78095909526
S11309C08E0F9F1F0895DC0101C06D93415050406C
S11309D0E0F70895FC016150704001900110D8F7D0
S11309E0809590958E0F9F1F08950F931F93CF931B
S11309F0DF93FB01238121FD03C08FEF9FEF28C00C
S1130A0022FF16C04681578124813581421753073E
S1130A1044F4A081B1819D012F5F3F4F3183208336
S1130A208C93268137812F5F3F4F3783268310C0F5
S1130A30EB01092F182F0084F185E02D0995892BEE
S1130A40E1F68E819F8101969F838E83812F902F63
S1130A50DF91CF911F910F910895FA01AA272830B1
S1130A6051F1203181F1E8946F936E7F6E5F7F4F77
S1130A708F4F9F4FAF4FB1E03ED0B4E03CD0670FF3
S1130A80781F891F9A1FA11D680F791F8A1F911D46
S1130A90A11D6A0F711D811D911DA11D20D009F496
S1130AA068943F912AE0269F11243019305D3193D8
S1130AB0DEF6CF010895462F4770405D4193B3E0C1
S1130AC00FD0C9F7F6CF462F4F70405D4A3318F068
S1130AD0495D31FD4052419302D0A9F7EACFB4E019
S1130AE0A6959795879577956795BA95C9F70097D1
S1130AF06105710508959B01AC010A2E0694579572
S1130B00479537952795BA95C9F7620F731F841FC8
S1130B10951FA01D08952F923F924F925F926F925E
S1130B207F928F929F92AF92BF92CF92DF92EF9279
S1130B30FF920F931F93CF93DF93CDB7DEB7CA1BFA
S1130B40DB0B0FB6F894DEBF0FBECDBF09942A8825
S1130B50398848885F846E847D848C849B84AA84CD
S1130B60B984C884DF80EE80FD800C811B81AA815A
S1130B70B981CE0FD11D0FB6F894DEBF0FBECDBF25
S10B0B80ED010895F894FFCF84
S1130B880000A300200045582031202D204B2E4C76
S1090B982E00256300009D
S9030000FC
